:0400000007EF00F016
:1000080033827CED03F058EF03F02BC0D9FF2CC0EE
:10001800DAFF2950DE1809E12A50DE18D8B417EFA4
:1000280000F019EF00F0BFEF00F0000E316E000E87
:10003800306E2BEF00F0010E3024216E000E3120BF
:10004800226E000E236E3CEC03F0304A312A295010
:10005800305C2A503158D8A034EF00F036EF00F069
:100068001FEF00F089EC03F00009D8B43EEF00F070
:1000780040EF00F074EF00F0000E2F6E61EF00F01B
:10008800010E3024216E000E3120226E0F0E2F2417
:10009800D96EDA6A000EDA22DF502D6E2E6AFF0E54
:1000A8002D24F66E7E0E2E20F76E0800F5CF23F075
:1000B8003CEC03F0304A312A2F2A0C0E2F6067EFF0
:1000C80000F069EF00F09CEF00F0020E315CD8A060
:1000D80070EF00F072EF00F044EF00F09CEF00F0DA
:1000E800000E2F6E8BEF00F0010E3024216E000EF3
:1000F8003120226E0F0E2F24D96EDA6A000EDA2212
:10010800DF50236E3CEC03F0304A312A2F2A0C0EC4
:100118002F6091EF00F093EF00F09CEF00F0020EDB
:10012800315CD8A09AEF00F09CEF00F078EF00F077
:10013800020E315CD8A0A3EF00F0A5EF00F0A7EF06
:1001480000F0B5EF00F0010E3024216E000E3120D2
:10015800226E000E236E3CEC03F0304A312A9CEFED
:1001680000F02BC0D9FF2CC0DAFF29C0DEFF2AC05F
:10017800DDFF2FEF01F089EC03F00009D8B4C7EFD9
:1001880000F0C9EF00F001EF01F0000E2F6E29C05A
:1001980030F02AC031F0EEEF00F0010E3024216E6D
:1001A800000E3120226E0F0E2F24D96EDA6A000E4F
:1001B800DA22DF502D6E2E6AFF0E2D24F66E7E0E8B
:1001C8002E20F76E0800F5CF23F03CEC03F0304A00
:1001D800312A2F2A0C0E2F60F4EF00F0F6EF00F012
:1001E8002FEF01F0020E315CD8A0FDEF00F0FFEF19
:1001F80000F0D1EF00F02FEF01F0000E2F6E29C0B4
:1002080030F02AC031F01CEF01F0010E3024216ECD
:10021800000E3120226E0F0E2F24D96EDA6A000EDE
:10022800DA22DF50236E3CEC03F0304A312A2F2AC1
:100238000C0E2F6022EF01F024EF01F02FEF01F0F8
:10024800020E315CD8A02BEF01F02DEF01F009EF81
:1002580001F02FEF01F012009DA035EF01F037EF0C
:1002680001F0BDEF01F09EA03CEF01F03EEF01F080
:10027800BDEF01F09E90A4EF01F0000E0C6E01A8F6
:1002880048EF01F04AEF01F05CEF01F00BA84FEFE7
:1002980001F051EF01F05CEF01F0FE0ECF6EF10EB0
:1002A800CE6E8C989598010E0C6E019860EF01F057
:1002B800FA0ECF6E230ECE6E024A032A0180E80E94
:1002C800021807E1030E0318D8A46DEF01F06FEFD1
:1002D80001F0BDEF01F0000E036E000E026E042A5D
:1002E80001823C0E0418D8A47CEF01F07EEF01F0E7
:1002F800BDEF01F0000E046E052A01843C0E0518BE
:10030800D8A489EF01F08BEF01F0BDEF01F0000EEA
:10031800056E062A0186BDEF01F08C88CF68E10ED4
:10032800CE6E020E0C6EBDEF01F095888C989D88FC
:10033800FB0ECF6E4F0ECE6E000E0C6EBDEF01F0B1
:100348000C501D6E1E6A1E50000AD8B4AEEF01F0A4
:1003580041EF01F01D50000AD8B443EF01F0010A43
:10036800D8B491EF01F0030AD8B499EF01F041EF46
:1003780001F012009DA8C3EF01F0C5EF01F022EFD4
:1003880002F09EA8CAEF01F0CCEF01F022EF02F0D4
:1003980005EF02F095988C8801889D98020E0D6EE5
:1003A80022EF02F00EC0ADFF000E076E060E086EBB
:1003B800000E0A6E000E096E030E0D6E22EF02F09B
:1003C800020E0A5CD8B0EBEF01F0EDEF01F0F9EFA7
:1003D80001F007C0D9FF08C0DAFFDF50AD6E074A49
:1003E800082A094A0A2A22EF02F0ACA2FEEF01F01D
:1003F80000EF02F022EF02F0000E0D6E0B8E22EFDE
:1004080002F00D501D6E1E6A1E50000AD8B40FEF80
:1004180002F022EF02F01D50000AD8B4CEEF01F02E
:10042800010AD8B422EF02F0030AD8B4D6EF01F0DB
:10043800010AD8B4E4EF01F022EF02F012008B8039
:1004480094902F0EAF6E000EB06E080EB86E800E30
:10045800AB6E650EAC6E000E226E000E216E000EA5
:100468002124D96E060E2220DA6E000EDF6E214A94
:10047800222A020E225CD8A044EF02F046EF02F0D6
:1004880033EF02F0000E0A6E000E096E000E0E6EBB
:10049800000E0D6E0B9A0B9C0B880B9E949C8C98EF
:1004A80095889D88000E0C6E000E066E000E056E77
:1004B800000E046E000E016EFA0ECF6E230ECE6E85
:1004C800B10ECD6E9E909D80F28C120023C027F055
:1004D80027C025F025462546C2502518C30B2518E8
:1004E800C26EA2EF02F0F00E00D0E82EFDD7C28255
:1004F800280EE82EFED7272A27C025F025462546B0
:10050800C2502518C30B2518C26EC2B28EEF02F076
:1005180090EF02F089EF02F027502124256E000E9B
:100528002220266EFF0E2524D96EFF0E2620DA6EB5
:10053800C4CFDFFF000EC46E000EC36E2450275CCC
:10054800D8A0A9EF02F0ABEF02F077EF02F01200AB
:10055800FC0ED31623EC02F093EC03F06FEC03F0DF
:10056800A0EC03F00F0E216E000E226E000E236E1B
:100578000C0E246E6AEC02F00F0E216E000E226E35
:10058800000E246E0C0E236EE2EC02F013EC03F066
:1005980021C029F022C02AF01B0E2B6E000E2C6EF3
:1005A80009EC00F04E0E326EEB0EE82EFED7322E1E
:1005B800FCD700F0B6EF02F007EF00F083ACE7EFEE
:1005C80002F0E9EF02F012EF03F0000E276E000EC2
:1005D800266E07EF03F026502124D96E27502220DB
:1005E800DA6E190EDF60FBEF02F0FDEF02F005EFA7
:1005F80003F026502124D96E27502220DA6E000EEF
:10060800DF6E264A272A2350265C24502758D8A074
:1006180010EF03F012EF03F0EFEF02F01200825038
:10062800300B236E246AD89023362436D89023368C
:100638002436D8902336243683500F0B256E266A2D
:10064800D89025362636D89025362636D8902536A1
:1006580026368250070B276E286A25502712265007
:10066800281223502710216E24502810226E1200C1
:100678002104020E2258D8B044EF03F046EF03F0ED
:1006880057EF03F021502210D8B44DEF03F04FEF8D
:1006980003F057EF03F0FF0E2124D96E050E222038
:1006A800DA6E23C0DFFF120006EE00F012EE00F053
:1006B800EE6AE550E150FCE1E250FAE100EE01F0AB
:1006C8001C0EEE6AE806FDE133903392000EF86ED8
:1006D8000001ACEF02F0C292030EC16E060EC06EAE
:1006E8002F0E92121F0E9312070E9612C28012003E
:1006F8000600D9CF1FF0DACF20F09BEC03F020C022
:10070800DAFF1FC0D9FF3392110083BA8EEF03F0CE
:1007180091EF03F0010E92EF03F0000E1200EF0EBE
:1007280095129480948294846D966F86120030ECB2
:0C07380001F0BEEC01F01200F28E120085
:107EFE000000001B1F2225272A2C2D2F313234354E
:107F0E003638393A3B3C3D3E3F404142434445467C
:107F1E00474849494A4B4C4C4D4E4F4F5051525287
:107F2E00535454555656575858595A5A5B5B5C5DC4
:107F3E005D5E5E5F6060616162626364646565661A
:107F4E006667676869696A6A6B6B6C6C6D6D6E6E7D
:107F5E006F6F7070717272737374747575767677E5
:107F6E0077787879797A7A7B7B7C7C7D7D7E7E7F53
:107F7E007F808081818282838384848585868687C3
:107F8E0087888889898A8A8B8B8C8C8D8D8E8E8F33
:107F9E008F9090919192939394949595969697979E
:107FAE009898999A9A9B9B9C9C9D9D9E9F9FA0A002
:107FBE00A1A2A2A3A3A4A5A5A6A7A7A8A8A9AAAA59
:107FCE00ABACADADAEAFAFB0B1B2B2B3B4B5B5B69A
:107FDE00B7B8B9BABBBBBCBDBEBFC0C1C2C3C5C6B4
:107FEE00C7C8CACBCCCECFD1D3D5D7D9DCDFE3FF30
:027FFE00FF0082
:020000040020DA
:08000000FFFFFFFFFFFFFFFF00
:020000040030CA
:0E000000010E1F1FFF0181FF0FC00FE00F4018
:00000001FF
