:0400000007EF00F016
:1000080033828AED06F066EF06F097EC06F00009F9
:10001800D8B411EF00F013EF00F019EF03F0290442
:100028002A10D8A41AEF00F01CEF00F0FCEF02F041
:10003800A1EC06F00009D8B424EF00F026EF00F098
:10004800BBEF01F0000E316E000E306E1CEF01F0B8
:10005800010E3024216E000E3120226EFF0E0F2477
:10006800F66EF76A7E0EF7220800F5CF23F04AEC09
:1000780006F0AEEF01F0010E3024216E000E3120A3
:10008800226EFF0E1024F66EF76A7E0EF722080025
:10009800F5CF23F04AEC06F0AEEF01F0010E302464
:1000A800216E000E3120226EFF0E1124F66EF76AC3
:1000B8007E0EF7220800F5CF23F04AEC06F0AEEFEB
:1000C80001F0010E3024216E000E3120226EFF0E49
:1000D8001224F66EF76A7E0EF7220800F5CF23F099
:1000E8004AEC06F0AEEF01F0010E3024216E000E4E
:1000F8003120226EFF0E1324F66EF76A7E0EF72269
:100108000800F5CF23F04AEC06F0AEEF01F0010E3F
:100118003024216E000E3120226EFF0E1424F66E5C
:10012800F76A7E0EF7220800F5CF23F04AEC06F0B6
:10013800AEEF01F0010E3024216E000E3120226E48
:10014800FF0E1524F66EF76A7E0EF7220800F5CF2B
:1001580023F04AEC06F0AEEF01F0010E3024216ED8
:10016800000E3120226EFF0E1624F66EF76A7E0E00
:10017800F7220800F5CF23F04AEC06F0AEEF01F0C5
:10018800010E3024216E000E3120226EFF0E17243E
:10019800F66EF76A7E0EF7220800F5CF23F04AECD8
:1001A80006F0AEEF01F0010E3024216E000E312072
:1001B800226EFF0E1824F66EF76A7E0EF7220800EC
:1001C800F5CF23F04AEC06F0AEEF01F0010E302433
:1001D800216E000E3120226EFF0E1924F66EF76A8A
:1001E8007E0EF7220800F5CF23F04AEC06F0AEEFBA
:1001F80001F0010E3024216E000E3120226EFF0E18
:100208001A24F66EF76A7E0EF7220800F5CF23F05F
:100218004AEC06F0AEEF01F0010E3024216E000E1C
:100228003120226E000E236E4AEC06F0AEEF01F08C
:1002380030C02DF031C02EF02E50000AD8B427EF70
:1002480001F010EF01F02D50010AD8B465EF00F06D
:10025800030AD8B478EF00F0010AD8B48BEF00F0A5
:10026800080AD8B465EF00F0070AD8B478EF00F0B0
:10027800010AD8B48BEF00F0180AD8B42CEF00F0BC
:10028800030AD8B43FEF00F0010AD8B452EF00F0E7
:10029800080AD8B42CEF00F03F0AD8B43FEF00F0BA
:1002A800010AD8B452EF00F0080AD8B42CEF00F0D5
:1002B800030AD8B43FEF00F0010AD8B452EF00F0B7
:1002C800180AD8B42CEF00F0070AD8B43FEF00F0B2
:1002D800010AD8B452EF00F0080AD8B42CEF00F0A5
:1002E800030AD8B43FEF00F0010AD8B452EF00F087
:1002F800780AD8B42CEF00F00F0AD8B43FEF00F01A
:10030800010AD8B452EF00F0180AD8B42CEF00F064
:10031800030AD8B43FEF00F0010AD8B452EF00F056
:10032800090AD8B49EEF00F0010AD8B4B1EF00F082
:10033800070AD8B4C4EF00F0010AD8B4D7EF00F028
:10034800030AD8B4EAEF00F0010AD8B4FDEF00F0D0
:1003580010EF01F0304A312A020E315CD8A0B7EF15
:1003680001F0B9EF01F01CEF01F03DEF04F0000ED1
:10037800316E000E306E5DEF02F0010E3024216EFA
:10038800000E3120226E0FC023F04AEC06F0EFEF8A
:1003980002F0010E3024216E000E3120226E10C0B2
:1003A80023F04AEC06F0EFEF02F0010E3024216E44
:1003B800000E3120226E11C023F04AEC06F0EFEF58
:1003C80002F0010E3024216E000E3120226E12C080
:1003D80023F04AEC06F0EFEF02F0010E3024216E14
:1003E800000E3120226E13C023F04AEC06F0EFEF26
:1003F80002F0010E3024216E000E3120226E14C04E
:1004080023F04AEC06F0EFEF02F0010E3024216EE3
:10041800000E3120226E15C023F04AEC06F0EFEFF3
:1004280002F0010E3024216E000E3120226E16C01B
:1004380023F04AEC06F0EFEF02F0010E3024216EB3
:10044800000E3120226E17C023F04AEC06F0EFEFC1
:1004580002F0010E3024216E000E3120226E18C0E9
:1004680023F04AEC06F0EFEF02F0010E3024216E83
:10047800000E3120226E19C023F04AEC06F0EFEF8F
:1004880002F0010E3024216E000E3120226E1AC0B7
:1004980023F04AEC06F0EFEF02F0010E3024216E53
:1004A800000E3120226E000E236E4AEC06F0EFEFAC
:1004B80002F030C02DF031C02EF02E50000AD8B412
:1004C80068EF02F051EF02F02D50010AD8B4E5EFC1
:1004D80001F0030AD8B4F1EF01F0010AD8B4FDEF36
:1004E80001F0080AD8B4E5EF01F0070AD8B4F1EF33
:1004F80001F0010AD8B4FDEF01F0180AD8B4C1EF31
:1005080001F0030AD8B4CDEF01F0010AD8B4D9EF4D
:1005180001F0080AD8B4C1EF01F03F0AD8B4CDEF12
:1005280001F0010AD8B4D9EF01F0080AD8B4C1EF34
:1005380001F0030AD8B4CDEF01F0010AD8B4D9EF1D
:1005480001F0180AD8B4C1EF01F0070AD8B4CDEF0A
:1005580001F0010AD8B4D9EF01F0080AD8B4C1EF04
:1005680001F0030AD8B4CDEF01F0010AD8B4D9EFED
:1005780001F0780AD8B4C1EF01F00F0AD8B4CDEF72
:1005880001F0010AD8B4D9EF01F0180AD8B4C1EFC4
:1005980001F0030AD8B4CDEF01F0010AD8B4D9EFBD
:1005A80001F0090AD8B409EF02F0010AD8B415EF2E
:1005B80002F0070AD8B421EF02F0010AD8B42DEFEF
:1005C80002F0030AD8B439EF02F0010AD8B445EFB3
:1005D80002F051EF02F0304A312A020E315CD8A005
:1005E800F8EF02F0FAEF02F05DEF02F03DEF04F0F1
:1005F800000E316E000E306E010E3024216E000E9A
:100608003120226E000E236E4AEC06F0304A312A61
:10061800020E315CD8A013EF03F015EF03F000EFE2
:1006280003F03DEF04F03DEF04F02BC0D9FF2CC0E0
:10063800DAFF2950DE1809E12A50DE18D8B427EF6E
:1006480003F029EF03F0CFEF03F0000E316E000E38
:10065800306E3BEF03F0010E3024216E000E312086
:10066800226E000E236E4AEC06F0304A312A2950D9
:10067800305C2A503158D8A044EF03F046EF03F01D
:100688002FEF03F0A1EC06F00009D8B44EEF03F009
:1006980050EF03F084EF03F0000E2F6E71EF03F0BC
:1006A800010E3024216E000E3120226E0F0E2F24F1
:1006B800D96EDA6A000EDA22DF502D6E2E6AFF0E2E
:1006C8002D24F66E7E0E2E20F76E0800F5CF23F04F
:1006D8004AEC06F0304A312A2F2A0C0E2F6077EFA9
:1006E80003F079EF03F0ACEF03F0020E315CD8A011
:1006F80080EF03F082EF03F054EF03F0ACEF03F068
:10070800000E2F6E9BEF03F0010E3024216E000EB9
:100718003120226E0F0E2F24D96EDA6A000EDA22EB
:10072800DF50236E4AEC06F0304A312A2F2A0C0E8D
:100738002F60A1EF03F0A3EF03F0ACEF03F0020E7C
:10074800315CD8A0AAEF03F0ACEF03F088EF03F018
:10075800020E315CD8A0B3EF03F0B5EF03F0B7EFAA
:1007680003F0C5EF03F0010E3024216E000E312096
:10077800226E000E236E4AEC06F0304A312AACEFA6
:1007880003F02BC0D9FF2CC0DAFF29C0DEFF2AC036
:10079800DDFF3DEF04F0A1EC06F00009D8B4D7EF77
:1007A80003F0D9EF03F011EF04F0000E2F6E29C00B
:1007B80030F02AC031F0FEEF03F0010E3024216E34
:1007C800000E3120226E0F0E2F24D96EDA6A000E29
:1007D800DA22DF502D6E2E6AFF0E2D24F66E7E0E65
:1007E8002E20F76E0800F5CF23F04AEC06F0304AC9
:1007F800312A2F2A0C0E2F6004EF04F006EF04F0C4
:1008080017EF03F0020E315CD8A00DEF04F00FEFE4
:1008180004F0E1EF03F03DEF04F0000E2F6E29C065
:1008280030F02AC031F02CEF04F0010E3024216E94
:10083800000E3120226E0F0E2F24D96EDA6A000EB8
:10084800DA22DF50236E4AEC06F0304A312A2F2A8A
:100858000C0E2F6032EF04F034EF04F017EF03F0C2
:10086800020E315CD8A03BEF04F03DEF04F019EF25
:1008780004F012009DA043EF04F045EF04F0CBEF25
:1008880004F09EA04AEF04F04CEF04F0CBEF04F024
:100898009E90B2EF04F0000E0C6E01A856EF04F023
:1008A80058EF04F06AEF04F00BA85DEF04F05FEF77
:1008B80004F06AEF04F0FE0ECF6EF10ECE6E8C9847
:1008C8009598010E0C6E01986EEF04F0FA0ECF6E3B
:1008D800230ECE6E024A032A0180E80E021807E1B1
:1008E800030E0318D8A47BEF04F07DEF04F0CBEFE0
:1008F80004F0000E036E000E026E042A01823C0E04
:100908000418D8A48AEF04F08CEF04F0CBEF04F0BD
:10091800000E046E052A01843C0E0518D8A497EF32
:1009280004F099EF04F0CBEF04F0000E056E062AF0
:100938000186CBEF04F08C88CF68E10ECE6E020EF4
:100948000C6ECBEF04F095888C989D88FB0ECF6ECB
:100958004F0ECE6E000E0C6ECBEF04F00C501D6ED9
:100968001E6A1E50000AD8B4BCEF04F04FEF04F022
:100978001D50000AD8B451EF04F0010AD8B49FEF13
:1009880004F0030AD8B4A7EF04F04FEF04F0120004
:100998009DA8D1EF04F0D3EF04F030EF05F09EA846
:1009A800D8EF04F0DAEF04F030EF05F013EF05F0BC
:1009B80095988C8801889D98020E0D6E30EF05F091
:1009C8000EC0ADFF000E076E060E086E000E0A6E12
:1009D800000E096E030E0D6E30EF05F0020E0A5C74
:1009E800D8B0F9EF04F0FBEF04F007EF05F007C00B
:1009F800D9FF08C0DAFFDF50AD6E074A082A094A56
:100A08000A2A30EF05F0ACA20CEF05F00EEF05F066
:100A180030EF05F0000E0D6E0B8E30EF05F00D5027
:100A28001D6E1E6A1E50000AD8B41DEF05F030EF87
:100A380005F01D50000AD8B4DCEF04F0010AD8B460
:100A480030EF05F0030AD8B4E4EF04F0010AD8B493
:100A5800F2EF04F030EF05F012008B8094902F0E27
:100A6800AF6E000EB06E080EB86E800EAB6E650EDF
:100A7800AC6E000E226E000E216E000E2124D96E7F
:100A8800060E2220DA6E000EDF6E214A222A020E9E
:100A9800225CD8A052EF05F054EF05F041EF05F0C5
:100AA800000E0A6E000E096E000E0E6E000E0D6E20
:100AB8000B9A0B9C0B880B9E949C8C9895889D8810
:100AC800000E0C6E000E066E000E056E000E046E13
:100AD800000E016EFA0ECF6E230ECE6EB10ECD6EE5
:100AE8009E909D80F28C120023C027F027C025F02D
:100AF80025462546C2502518C30B2518C26EB0EFEF
:100B080005F0F00E00D0E82EFDD7C282280EE82EA0
:100B1800FED7272A27C025F025462546C250251886
:100B2800C30B2518C26EC2B29CEF05F09EEF05F00C
:100B380097EF05F027502124256E000E2220266EFF
:100B4800FF0E2524D96EFF0E2620DA6EC4CFDFFFF4
:100B5800000EC46E000EC36E2450275CD8A0B7EFF9
:100B680005F0B9EF05F085EF05F01200FC0ED3167D
:100B780031EC05F0ABEC06F07DEC06F0B8EC06F0D5
:100B88000F0E216E000E226E000E236E0C0E246EC8
:100B980078EC05F00F0E216E000E226E000E246E0A
:100BA8000C0E236EF0EC05F021EC06F021C029F0C4
:100BB80022C02AF01B0E2B6E000E2C6E09EC00F0E2
:100BC8004E0E326EEB0EE82EFED7322EFCD700F01A
:100BD800C4EF05F007EF00F083ACF5EF05F0F7EF91
:100BE80005F020EF06F0000E276E000E266E15EFBA
:100BF80006F026502124D96E27502220DA6E190ECD
:100C0800DF6009EF06F00BEF06F013EF06F0265051
:100C18002124D96E27502220DA6E000EDF6E264A74
:100C2800272A2350265C24502758D8A01EEF06F008
:100C380020EF06F0FDEF05F012008250300B236E16
:100C4800246AD89023362436D89023362436D89070
:100C58002336243683500F0B256E266AD890253606
:100C68002636D89025362636D89025362636825010
:100C7800070B276E286A2550271226502812235062
:100C88002710216E24502810226E12002104020E13
:100C98002258D8B052EF06F054EF06F065EF06F090
:100CA80021502210D8B45BEF06F05DEF06F065EF37
:100CB80006F0FF0E2124D96E050E2220DA6E23C01D
:100CC800DFFF120006EE00F012EE00F0EE6AE550CB
:100CD800E150FCE1E250FAE100EE01F01C0EEE6A90
:100CE800E806FDE133903392000EF86E0001BAEF8A
:100CF80005F0C292030EC16E060EC06E2F0E921240
:100D08001F0E9312070E9612C28012000600D9CF4A
:100D18001FF0DACF20F0B3EC06F020C0DAFF1FC0D6
:100D2800D9FF3392110083BE9CEF06F09FEF06F0C7
:100D3800010EA0EF06F0000E120083BAA6EF06F02F
:100D4800A9EF06F0010EAAEF06F0000E1200EF0E52
:100D580095129480948294846D966F8612003EEC6E
:0C0D680004F0CCEC04F01200F28E12003B
:107EFE000000001B1F2225272A2C2D2F313234354E
:107F0E003638393A3B3C3D3E3F404142434445467C
:107F1E00474849494A4B4C4C4D4E4F4F5051525287
:107F2E00535454555656575858595A5A5B5B5C5DC4
:107F3E005D5E5E5F6060616162626364646565661A
:107F4E006667676869696A6A6B6B6C6C6D6D6E6E7D
:107F5E006F6F7070717272737374747575767677E5
:107F6E0077787879797A7A7B7B7C7C7D7D7E7E7F53
:107F7E007F808081818282838384848585868687C3
:107F8E0087888889898A8A8B8B8C8C8D8D8E8E8F33
:107F9E008F9090919192939394949595969697979E
:107FAE009898999A9A9B9B9C9C9D9D9E9F9FA0A002
:107FBE00A1A2A2A3A3A4A5A5A6A7A7A8A8A9AAAA59
:107FCE00ABACADADAEAFAFB0B1B2B2B3B4B5B5B69A
:107FDE00B7B8B9BABBBBBCBDBEBFC0C1C2C3C5C6B4
:107FEE00C7C8CACBCCCECFD1D3D5D7D9DCDFE3FF30
:027FFE00FF0082
:020000040020DA
:08000000FFFFFFFFFFFFFFFF00
:020000040030CA
:0E000000010E1F1FFF0181FF0FC00FE00F4018
:00000001FF
